:100000000EC01DC01CC01BC01AC019C018C017C02C
:1000100016C015C014C013C012C011C010C01124E6
:100020001FBECFE5D2E0DEBFCDBF20E0A0E6B0E04E
:1000300001C01D92AB36B207E1F77DD09DC0E0CF85
:1000400080936A0047B321E030E0F90102C0EE0F6F
:10005000FF1F8A95E2F7CF01942F982B97BB98B397
:100060008095892388BB609369000895DB01A850BF
:10007000BF4F4091690021E030E0F90102C0EE0F6E
:10008000FF1F8A95E2F7CF015E2F80952CE732E1C2
:10009000261B370B442371F098B3952B98BBFD01B9
:1000A0003197F1F798B3982398BBF9013197F1F79D
:1000B0004150F0CF0895BC0180916A00D7CF962FB0
:1000C00080936800642F892FBBCFE0916800F0E037
:1000D000EE0FFF1FE05AFF4F808191810895EF924C
:1000E000FF920F931F93CF93DF937C01C091680021
:1000F000D0E0CC0FDD1FFE01E05AFF4F00811181DF
:10010000E016F10689F00E151F051CF40F5F1F4F56
:1001100002C001501109C801CEDFE016F10699F7BF
:10012000C05ADF4FF982E882DF91CF911F910F9182
:10013000FF90EF90089541E061E080E0C0DF8DE73F
:1001400090E0CDDF2FE986E891E02150804090409B
:10015000E1F700C000008CE99FEFC1DF8FE493EC72
:100160000197F1F700C000008EE591E0B8DF8FE461
:0C01700093EC0197F1F7EDCFF894FFCF6E
:00000001FF
