:100000000EC01DC01CC01BC01AC019C018C017C02C
:1000100016C015C014C013C012C011C010C01124E6
:100020001FBECFE5D2E0DEBFCDBF20E0A0E6B0E04E
:1000300001C01D92AA36B207E1F779D098C0E0CF8F
:100040008093690047B321E030E0B90102C0660F38
:10005000771F8A95E2F7CB01942F982B97BB98B323
:100060008095892388BB0895DB01A850BF4F21E00C
:1000700030E0F90102C0EE0FFF1F8A95E2F7CF01D1
:100080005E2F80952CE732E1261B370B442371F05D
:1000900098B3952B98BBFD013197F1F798B398234E
:1000A00098BBF9013197F1F74150F0CF0895462FF1
:1000B000BC0180916900D8CF80936800862FC0CFA3
:1000C000E0916800F0E0EE0FFF1FE05AFF4F8081E3
:1000D00091810895EF92FF920F931F93CF93DF9337
:1000E0007C01C0916800D0E0CC0FDD1FFE01E05A1A
:1000F000FF4F00811181E016F10691F00E151F05EA
:100100001CF40F5F1F4F02C00150110961E0C801CC
:10011000CEDFE016F10691F7C05ADF4FF982E88290
:10012000DF91CF911F910F91FF90EF90089561E0C3
:1001300080E0C2DF8DE790E0CDDF2FE986E891E037
:10014000215080409040E1F700C0000080E090E046
:10015000C1DF8FE493EC0197F1F700C000008AEF54
:1001600090E0B8DF8FE493EC0197F1F7EDCFF894CE
:02017000FFCFBF
:00000001FF
