:100000000EC01DC01CC01BC01AC019C018C017C02C
:1000100016C015C014C013C012C011C010C01124E6
:100020001FBECFE5D2E0DEBFCDBF20E0A0E6B0E04E
:1000300001C01D92AA36B207E1F777D096C0E0CF93
:100040008093690047B321E030E0B90102C0660F38
:10005000771F8A95E2F7CB01942F982B97BB98B323
:100060008095892388BB089568507F4F21E030E058
:10007000F90102C0EE0FFF1F8A95E2F7CF015E2F54
:10008000809524E733E1261B370B442371F098B3A6
:10009000952B98BBFB013197F1F798B3982398BB48
:1000A000F9013197F1F74150F0CF0895462FBC0187
:1000B00080916900D9CF80936800862FC1CFE091ED
:1000C0006800F0E0EE0FFF1FE05AFF4F8081918142
:1000D0000895EF92FF920F931F93CF93DF937C01CC
:1000E0000091680010E0000F111FF801E05AFF4F67
:1000F000C081D181CE15DF0589F0CE15DF0514F45E
:10010000219601C0219761E0CE01D0DFCE15DF0539
:10011000A1F7F801E05AFF4FD183C083DF91CF915F
:100120001F910F91FF90EF90089561E080E0C3DF91
:100130008DE790E0CEDF2FE986E891E02150804006
:100140009040E1F700C0000080E090E0C2DF8FE463
:1001500093EC0197F1F700C000008AEF90E0B9DF5F
:0E0160008FE493EC0197F1F7EDCFF894FFCF09
:00000001FF
